{
  "_format": "hh-sol-artifact-1",
  "contractName": "EnergyTrading",
  "sourceName": "contracts/EnergyTrading.sol",
  "abi": [
    {
      "anonymous": false,
      "inputs": [
        {
          "indexed": false,
          "internalType": "uint256",
          "name": "tradeId",
          "type": "uint256"
        },
        {
          "indexed": false,
          "internalType": "address",
          "name": "buyer",
          "type": "address"
        }
      ],
      "name": "TradeCompleted",
      "type": "event"
    },
    {
      "anonymous": false,
      "inputs": [
        {
          "indexed": false,
          "internalType": "uint256",
          "name": "tradeId",
          "type": "uint256"
        },
        {
          "indexed": false,
          "internalType": "address",
          "name": "seller",
          "type": "address"
        },
        {
          "indexed": false,
          "internalType": "uint256",
          "name": "energyAmount",
          "type": "uint256"
        },
        {
          "indexed": false,
          "internalType": "uint256",
          "name": "price",
          "type": "uint256"
        }
      ],
      "name": "TradeCreated",
      "type": "event"
    },
    {
      "inputs": [
        {
          "internalType": "uint256",
          "name": "tradeId",
          "type": "uint256"
        }
      ],
      "name": "acceptTrade",
      "outputs": [],
      "stateMutability": "payable",
      "type": "function"
    },
    {
      "inputs": [
        {
          "internalType": "uint256",
          "name": "energyAmount",
          "type": "uint256"
        },
        {
          "internalType": "uint256",
          "name": "price",
          "type": "uint256"
        }
      ],
      "name": "createTrade",
      "outputs": [],
      "stateMutability": "nonpayable",
      "type": "function"
    },
    {
      "inputs": [
        {
          "internalType": "uint256",
          "name": "tradeId",
          "type": "uint256"
        }
      ],
      "name": "getTrade",
      "outputs": [
        {
          "components": [
            {
              "internalType": "address",
              "name": "seller",
              "type": "address"
            },
            {
              "internalType": "address",
              "name": "buyer",
              "type": "address"
            },
            {
              "internalType": "uint256",
              "name": "energyAmount",
              "type": "uint256"
            },
            {
              "internalType": "uint256",
              "name": "price",
              "type": "uint256"
            },
            {
              "internalType": "bool",
              "name": "completed",
              "type": "bool"
            }
          ],
          "internalType": "struct EnergyTrading.Trade",
          "name": "",
          "type": "tuple"
        }
      ],
      "stateMutability": "view",
      "type": "function"
    },
    {
      "inputs": [],
      "name": "getTradesLength",
      "outputs": [
        {
          "internalType": "uint256",
          "name": "",
          "type": "uint256"
        }
      ],
      "stateMutability": "view",
      "type": "function"
    },
    {
      "inputs": [
        {
          "internalType": "uint256",
          "name": "",
          "type": "uint256"
        }
      ],
      "name": "trades",
      "outputs": [
        {
          "internalType": "address",
          "name": "seller",
          "type": "address"
        },
        {
          "internalType": "address",
          "name": "buyer",
          "type": "address"
        },
        {
          "internalType": "uint256",
          "name": "energyAmount",
          "type": "uint256"
        },
        {
          "internalType": "uint256",
          "name": "price",
          "type": "uint256"
        },
        {
          "internalType": "bool",
          "name": "completed",
          "type": "bool"
        }
      ],
      "stateMutability": "view",
      "type": "function"
    }
  ],
  "bytecode": "0x608060405234801561001057600080fd5b50610bf7806100206000396000f3fe60806040526004361061004a5760003560e01c80631e6c598e1461004f5780632db25e051461009057806349ec094e146100cd57806396463fc6146100f8578063ecb9fec314610121575b600080fd5b34801561005b57600080fd5b5061007660048036038101906100719190610776565b61013d565b60405161008795949392919061080e565b60405180910390f35b34801561009c57600080fd5b506100b760048036038101906100b29190610776565b6101d0565b6040516100c491906108f6565b60405180910390f35b3480156100d957600080fd5b506100e261032e565b6040516100ef9190610911565b60405180910390f35b34801561010457600080fd5b5061011f600480360381019061011a919061092c565b61033a565b005b61013b60048036038101906101369190610776565b6104d2565b005b6000818154811061014d57600080fd5b90600052602060002090600502016000915090508060000160009054906101000a900473ffffffffffffffffffffffffffffffffffffffff16908060010160009054906101000a900473ffffffffffffffffffffffffffffffffffffffff16908060020154908060030154908060040160009054906101000a900460ff16905085565b6101d86106de565b600080549050821061021f576040517f08c379a0000000000000000000000000000000000000000000000000000000008152600401610216906109c9565b60405180910390fd5b60008281548110610233576102326109e9565b5b90600052602060002090600502016040518060a00160405290816000820160009054906101000a900473ffffffffffffffffffffffffffffffffffffffff1673ffffffffffffffffffffffffffffffffffffffff1673ffffffffffffffffffffffffffffffffffffffff1681526020016001820160009054906101000a900473ffffffffffffffffffffffffffffffffffffffff1673ffffffffffffffffffffffffffffffffffffffff1673ffffffffffffffffffffffffffffffffffffffff16815260200160028201548152602001600382015481526020016004820160009054906101000a900460ff1615151515815250509050919050565b60008080549050905090565b60006040518060a001604052803373ffffffffffffffffffffffffffffffffffffffff168152602001600073ffffffffffffffffffffffffffffffffffffffff16815260200184815260200183815260200160001515815250908060018154018082558091505060019003906000526020600020906005020160009091909190915060008201518160000160006101000a81548173ffffffffffffffffffffffffffffffffffffffff021916908373ffffffffffffffffffffffffffffffffffffffff16021790555060208201518160010160006101000a81548173ffffffffffffffffffffffffffffffffffffffff021916908373ffffffffffffffffffffffffffffffffffffffff160217905550604082015181600201556060820151816003015560808201518160040160006101000a81548160ff02191690831515021790555050507fd0e9aa5556e03c447575bd31d7a883384c075015de0184785193f025fbfd545160016000805490506104b39190610a47565b3384846040516104c69493929190610a7b565b60405180910390a15050565b6000805490508110610519576040517f08c379a0000000000000000000000000000000000000000000000000000000008152600401610510906109c9565b60405180910390fd5b600080828154811061052e5761052d6109e9565b5b906000526020600020906005020190508060040160009054906101000a900460ff1615610590576040517f08c379a000000000000000000000000000000000000000000000000000000000815260040161058790610b0c565b60405180910390fd5b806003015434146105d6576040517f08c379a00000000000000000000000000000000000000000000000000000000081526004016105cd90610b78565b60405180910390fd5b338160010160006101000a81548173ffffffffffffffffffffffffffffffffffffffff021916908373ffffffffffffffffffffffffffffffffffffffff16021790555060018160040160006101000a81548160ff0219169083151502179055508060000160009054906101000a900473ffffffffffffffffffffffffffffffffffffffff1673ffffffffffffffffffffffffffffffffffffffff166108fc349081150290604051600060405180830381858888f193505050501580156106a0573d6000803e3d6000fd5b507f426b87d30760ed04a097c0113c943b597a538ae1483a0386bca1ea9380947aa182336040516106d2929190610b98565b60405180910390a15050565b6040518060a00160405280600073ffffffffffffffffffffffffffffffffffffffff168152602001600073ffffffffffffffffffffffffffffffffffffffff16815260200160008152602001600081526020016000151581525090565b600080fd5b6000819050919050565b61075381610740565b811461075e57600080fd5b50565b6000813590506107708161074a565b92915050565b60006020828403121561078c5761078b61073b565b5b600061079a84828501610761565b91505092915050565b600073ffffffffffffffffffffffffffffffffffffffff82169050919050565b60006107ce826107a3565b9050919050565b6107de816107c3565b82525050565b6107ed81610740565b82525050565b60008115159050919050565b610808816107f3565b82525050565b600060a08201905061082360008301886107d5565b61083060208301876107d5565b61083d60408301866107e4565b61084a60608301856107e4565b61085760808301846107ff565b9695505050505050565b61086a816107c3565b82525050565b61087981610740565b82525050565b610888816107f3565b82525050565b60a0820160008201516108a46000850182610861565b5060208201516108b76020850182610861565b5060408201516108ca6040850182610870565b5060608201516108dd6060850182610870565b5060808201516108f0608085018261087f565b50505050565b600060a08201905061090b600083018461088e565b92915050565b600060208201905061092660008301846107e4565b92915050565b600080604083850312156109435761094261073b565b5b600061095185828601610761565b925050602061096285828601610761565b9150509250929050565b600082825260208201905092915050565b7f547261646520646f6573206e6f74206578697374000000000000000000000000600082015250565b60006109b360148361096c565b91506109be8261097d565b602082019050919050565b600060208201905081810360008301526109e2816109a6565b9050919050565b7f4e487b7100000000000000000000000000000000000000000000000000000000600052603260045260246000fd5b7f4e487b7100000000000000000000000000000000000000000000000000000000600052601160045260246000fd5b6000610a5282610740565b9150610a5d83610740565b9250828203905081811115610a7557610a74610a18565b5b92915050565b6000608082019050610a9060008301876107e4565b610a9d60208301866107d5565b610aaa60408301856107e4565b610ab760608301846107e4565b95945050505050565b7f547261646520616c726561647920636f6d706c65746564000000000000000000600082015250565b6000610af660178361096c565b9150610b0182610ac0565b602082019050919050565b60006020820190508181036000830152610b2581610ae9565b9050919050565b7f496e636f72726563742070726963650000000000000000000000000000000000600082015250565b6000610b62600f8361096c565b9150610b6d82610b2c565b602082019050919050565b60006020820190508181036000830152610b9181610b55565b9050919050565b6000604082019050610bad60008301856107e4565b610bba60208301846107d5565b939250505056fea264697066735822122072e8a1d51e50cc2528fc6b5f027a13966d264c7284cb45db1eb0a54e4e9ac3ef64736f6c63430008140033",
  "linkReferences": {},
  "deployedLinkReferences": {}
}