{
  "_format": "hh-sol-artifact-1",
  "contractName": "EnergyTrading",
  "sourceName": "contracts/EnergyTrading.sol",
  "abi": [
    {
      "anonymous": false,
      "inputs": [
        {
          "indexed": false,
          "internalType": "uint256",
          "name": "tradeId",
          "type": "uint256"
        },
        {
          "indexed": false,
          "internalType": "address",
          "name": "buyer",
          "type": "address"
        }
      ],
      "name": "TradeCompleted",
      "type": "event"
    },
    {
      "anonymous": false,
      "inputs": [
        {
          "indexed": false,
          "internalType": "uint256",
          "name": "tradeId",
          "type": "uint256"
        },
        {
          "indexed": false,
          "internalType": "address",
          "name": "seller",
          "type": "address"
        },
        {
          "indexed": false,
          "internalType": "uint256",
          "name": "energyAmount",
          "type": "uint256"
        },
        {
          "indexed": false,
          "internalType": "uint256",
          "name": "price",
          "type": "uint256"
        }
      ],
      "name": "TradeCreated",
      "type": "event"
    },
    {
      "inputs": [
        {
          "internalType": "uint256",
          "name": "tradeId",
          "type": "uint256"
        }
      ],
      "name": "acceptTrade",
      "outputs": [],
      "stateMutability": "payable",
      "type": "function"
    },
    {
      "inputs": [
        {
          "internalType": "uint256",
          "name": "energyAmount",
          "type": "uint256"
        },
        {
          "internalType": "uint256",
          "name": "price",
          "type": "uint256"
        }
      ],
      "name": "createTrade",
      "outputs": [],
      "stateMutability": "nonpayable",
      "type": "function"
    },
    {
      "inputs": [
        {
          "internalType": "uint256",
          "name": "tradeId",
          "type": "uint256"
        }
      ],
      "name": "getTrade",
      "outputs": [
        {
          "components": [
            {
              "internalType": "address",
              "name": "seller",
              "type": "address"
            },
            {
              "internalType": "address",
              "name": "buyer",
              "type": "address"
            },
            {
              "internalType": "uint256",
              "name": "energyAmount",
              "type": "uint256"
            },
            {
              "internalType": "uint256",
              "name": "price",
              "type": "uint256"
            },
            {
              "internalType": "bool",
              "name": "completed",
              "type": "bool"
            }
          ],
          "internalType": "struct EnergyTrading.Trade",
          "name": "",
          "type": "tuple"
        }
      ],
      "stateMutability": "view",
      "type": "function"
    },
    {
      "inputs": [
        {
          "internalType": "uint256",
          "name": "",
          "type": "uint256"
        }
      ],
      "name": "trades",
      "outputs": [
        {
          "internalType": "address",
          "name": "seller",
          "type": "address"
        },
        {
          "internalType": "address",
          "name": "buyer",
          "type": "address"
        },
        {
          "internalType": "uint256",
          "name": "energyAmount",
          "type": "uint256"
        },
        {
          "internalType": "uint256",
          "name": "price",
          "type": "uint256"
        },
        {
          "internalType": "bool",
          "name": "completed",
          "type": "bool"
        }
      ],
      "stateMutability": "view",
      "type": "function"
    }
  ],
  "bytecode": "0x6080604052348015600f57600080fd5b50610b9a8061001f6000396000f3fe60806040526004361061003f5760003560e01c80631e6c598e146100445780632db25e051461008557806396463fc6146100c2578063ecb9fec3146100eb575b600080fd5b34801561005057600080fd5b5061006b60048036038101906100669190610734565b610107565b60405161007c9594939291906107cc565b60405180910390f35b34801561009157600080fd5b506100ac60048036038101906100a79190610734565b61019a565b6040516100b991906108b4565b60405180910390f35b3480156100ce57600080fd5b506100e960048036038101906100e491906108cf565b6102f8565b005b61010560048036038101906101009190610734565b610490565b005b6000818154811061011757600080fd5b90600052602060002090600502016000915090508060000160009054906101000a900473ffffffffffffffffffffffffffffffffffffffff16908060010160009054906101000a900473ffffffffffffffffffffffffffffffffffffffff16908060020154908060030154908060040160009054906101000a900460ff16905085565b6101a261069c565b60008054905082106101e9576040517f08c379a00000000000000000000000000000000000000000000000000000000081526004016101e09061096c565b60405180910390fd5b600082815481106101fd576101fc61098c565b5b90600052602060002090600502016040518060a00160405290816000820160009054906101000a900473ffffffffffffffffffffffffffffffffffffffff1673ffffffffffffffffffffffffffffffffffffffff1673ffffffffffffffffffffffffffffffffffffffff1681526020016001820160009054906101000a900473ffffffffffffffffffffffffffffffffffffffff1673ffffffffffffffffffffffffffffffffffffffff1673ffffffffffffffffffffffffffffffffffffffff16815260200160028201548152602001600382015481526020016004820160009054906101000a900460ff1615151515815250509050919050565b60006040518060a001604052803373ffffffffffffffffffffffffffffffffffffffff168152602001600073ffffffffffffffffffffffffffffffffffffffff16815260200184815260200183815260200160001515815250908060018154018082558091505060019003906000526020600020906005020160009091909190915060008201518160000160006101000a81548173ffffffffffffffffffffffffffffffffffffffff021916908373ffffffffffffffffffffffffffffffffffffffff16021790555060208201518160010160006101000a81548173ffffffffffffffffffffffffffffffffffffffff021916908373ffffffffffffffffffffffffffffffffffffffff160217905550604082015181600201556060820151816003015560808201518160040160006101000a81548160ff02191690831515021790555050507fd0e9aa5556e03c447575bd31d7a883384c075015de0184785193f025fbfd5451600160008054905061047191906109ea565b3384846040516104849493929190610a1e565b60405180910390a15050565b60008054905081106104d7576040517f08c379a00000000000000000000000000000000000000000000000000000000081526004016104ce9061096c565b60405180910390fd5b60008082815481106104ec576104eb61098c565b5b906000526020600020906005020190508060040160009054906101000a900460ff161561054e576040517f08c379a000000000000000000000000000000000000000000000000000000000815260040161054590610aaf565b60405180910390fd5b80600301543414610594576040517f08c379a000000000000000000000000000000000000000000000000000000000815260040161058b90610b1b565b60405180910390fd5b338160010160006101000a81548173ffffffffffffffffffffffffffffffffffffffff021916908373ffffffffffffffffffffffffffffffffffffffff16021790555060018160040160006101000a81548160ff0219169083151502179055508060000160009054906101000a900473ffffffffffffffffffffffffffffffffffffffff1673ffffffffffffffffffffffffffffffffffffffff166108fc349081150290604051600060405180830381858888f1935050505015801561065e573d6000803e3d6000fd5b507f426b87d30760ed04a097c0113c943b597a538ae1483a0386bca1ea9380947aa18233604051610690929190610b3b565b60405180910390a15050565b6040518060a00160405280600073ffffffffffffffffffffffffffffffffffffffff168152602001600073ffffffffffffffffffffffffffffffffffffffff16815260200160008152602001600081526020016000151581525090565b600080fd5b6000819050919050565b610711816106fe565b811461071c57600080fd5b50565b60008135905061072e81610708565b92915050565b60006020828403121561074a576107496106f9565b5b60006107588482850161071f565b91505092915050565b600073ffffffffffffffffffffffffffffffffffffffff82169050919050565b600061078c82610761565b9050919050565b61079c81610781565b82525050565b6107ab816106fe565b82525050565b60008115159050919050565b6107c6816107b1565b82525050565b600060a0820190506107e16000830188610793565b6107ee6020830187610793565b6107fb60408301866107a2565b61080860608301856107a2565b61081560808301846107bd565b9695505050505050565b61082881610781565b82525050565b610837816106fe565b82525050565b610846816107b1565b82525050565b60a082016000820151610862600085018261081f565b506020820151610875602085018261081f565b506040820151610888604085018261082e565b50606082015161089b606085018261082e565b5060808201516108ae608085018261083d565b50505050565b600060a0820190506108c9600083018461084c565b92915050565b600080604083850312156108e6576108e56106f9565b5b60006108f48582860161071f565b92505060206109058582860161071f565b9150509250929050565b600082825260208201905092915050565b7f547261646520646f6573206e6f74206578697374000000000000000000000000600082015250565b600061095660148361090f565b915061096182610920565b602082019050919050565b6000602082019050818103600083015261098581610949565b9050919050565b7f4e487b7100000000000000000000000000000000000000000000000000000000600052603260045260246000fd5b7f4e487b7100000000000000000000000000000000000000000000000000000000600052601160045260246000fd5b60006109f5826106fe565b9150610a00836106fe565b9250828203905081811115610a1857610a176109bb565b5b92915050565b6000608082019050610a3360008301876107a2565b610a406020830186610793565b610a4d60408301856107a2565b610a5a60608301846107a2565b95945050505050565b7f547261646520616c726561647920636f6d706c65746564000000000000000000600082015250565b6000610a9960178361090f565b9150610aa482610a63565b602082019050919050565b60006020820190508181036000830152610ac881610a8c565b9050919050565b7f496e636f72726563742070726963650000000000000000000000000000000000600082015250565b6000610b05600f8361090f565b9150610b1082610acf565b602082019050919050565b60006020820190508181036000830152610b3481610af8565b9050919050565b6000604082019050610b5060008301856107a2565b610b5d6020830184610793565b939250505056fea2646970667358221220e1fad5f620f76c4af0011a04f95601d5dbbc22ff137f1fe56f8fcab41aea048064736f6c634300081c0033",
  "linkReferences": {},
  "deployedLinkReferences": {}
}